{
    "contractName": "EntityRegistration",
    "abi": [
        {
            "inputs": [],
            "stateMutability": "nonpayable",
            "type": "constructor"
        },
        {
            "inputs": [],
            "name": "administrator",
            "outputs": [
                {
                    "internalType": "address",
                    "name": "",
                    "type": "address"
                }
            ],
            "stateMutability": "view",
            "type": "function"
        },
        {
            "inputs": [
                {
                    "internalType": "uint256",
                    "name": "",
                    "type": "uint256"
                }
            ],
            "name": "entities",
            "outputs": [
                {
                    "internalType": "string",
                    "name": "name",
                    "type": "string"
                },
                {
                    "internalType": "string",
                    "name": "entityType",
                    "type": "string"
                },
                {
                    "internalType": "bool",
                    "name": "manuallyAuthenticated",
                    "type": "bool"
                },
                {
                    "internalType": "bytes32",
                    "name": "hashedAadhar",
                    "type": "bytes32"
                }
            ],
            "stateMutability": "view",
            "type": "function"
        },
        {
            "inputs": [],
            "name": "entityCount",
            "outputs": [
                {
                    "internalType": "uint256",
                    "name": "",
                    "type": "uint256"
                }
            ],
            "stateMutability": "view",
            "type": "function"
        },
        {
            "inputs": [
                {
                    "internalType": "uint256",
                    "name": "_entityId",
                    "type": "uint256"
                }
            ],
            "name": "getEntity",
            "outputs": [
                {
                    "internalType": "string",
                    "name": "",
                    "type": "string"
                },
                {
                    "internalType": "string",
                    "name": "",
                    "type": "string"
                },
                {
                    "internalType": "bool",
                    "name": "",
                    "type": "bool"
                },
                {
                    "internalType": "bytes32",
                    "name": "",
                    "type": "bytes32"
                }
            ],
            "stateMutability": "view",
            "type": "function"
        },
        {
            "inputs": [],
            "name": "getEntityCount",
            "outputs": [
                {
                    "internalType": "uint256",
                    "name": "",
                    "type": "uint256"
                }
            ],
            "stateMutability": "view",
            "type": "function"
        },
        {
            "inputs": [
                {
                    "internalType": "string",
                    "name": "_name",
                    "type": "string"
                },
                {
                    "internalType": "string",
                    "name": "_entityType",
                    "type": "string"
                },
                {
                    "internalType": "bool",
                    "name": "_manuallyAuthenticated",
                    "type": "bool"
                },
                {
                    "internalType": "uint256",
                    "name": "_aadharNumber",
                    "type": "uint256"
                }
            ],
            "name": "registerEntity",
            "outputs": [],
            "stateMutability": "nonpayable",
            "type": "function"
        }
    ],
    "bytecode": "608060405234801561001057600080fd5b50600280546001600160a01b031916331790556109f6806100326000396000f3fe608060405234801561001057600080fd5b50600436106100625760003560e01c806353e6019b146100675780635d1b45b51461007c5780636331883b1461009357806384a0a8c4146100b6578063b3a27842146100bf578063f53d0a8e146100d2575b600080fd5b61007a610075366004610735565b6100fd565b005b6001545b6040519081526020015b60405180910390f35b6100a66100a13660046107b8565b610308565b60405161008a9493929190610817565b61008060015481565b6100a66100cd3660046107b8565b610444565b6002546100e5906001600160a01b031681565b6040516001600160a01b03909116815260200161008a565b6002546001600160a01b031633146101735760405162461bcd60e51b815260206004820152602e60248201527f4f6e6c79207468652061646d696e6973747261746f722063616e20706572666f60448201526d3936903a3434b99030b1ba34b7b760911b60648201526084015b60405180910390fd5b60008451116101c45760405162461bcd60e51b815260206004820152601860248201527f4e616d652073686f756c64206e6f7420626520656d7074790000000000000000604482015260640161016a565b60008351116102155760405162461bcd60e51b815260206004820152601f60248201527f456e7469747920747970652073686f756c64206e6f7420626520656d70747900604482015260640161016a565b6000811161025d5760405162461bcd60e51b815260206004820152601560248201527424b73b30b634b21020b0b23430b910373ab6b132b960591b604482015260640161016a565b6040805160808101825260006060820152858152602081018590528315159181019190915261028b82610615565b6060820152600180549060006102a083610850565b90915550506001546000908152602081905260409020815182919081906102c79082610900565b50602082015160018201906102dc9082610900565b50604082015160028201805460ff19169115159190911790556060909101516003909101555050505050565b60006020819052908152604090208054819061032390610877565b80601f016020809104026020016040519081016040528092919081815260200182805461034f90610877565b801561039c5780601f106103715761010080835404028352916020019161039c565b820191906000526020600020905b81548152906001019060200180831161037f57829003601f168201915b5050505050908060010180546103b190610877565b80601f01602080910402602001604051908101604052809291908181526020018280546103dd90610877565b801561042a5780601f106103ff5761010080835404028352916020019161042a565b820191906000526020600020905b81548152906001019060200180831161040d57829003601f168201915b505050506002830154600390930154919260ff1691905084565b60608060008060008511801561045c57506001548511155b61049c5760405162461bcd60e51b8152602060048201526011602482015270125b9d985b1a5908195b9d1a5d1e481251607a1b604482015260640161016a565b6000858152602081905260408082208151608081019092528054829082906104c390610877565b80601f01602080910402602001604051908101604052809291908181526020018280546104ef90610877565b801561053c5780601f106105115761010080835404028352916020019161053c565b820191906000526020600020905b81548152906001019060200180831161051f57829003601f168201915b5050505050815260200160018201805461055590610877565b80601f016020809104026020016040519081016040528092919081815260200182805461058190610877565b80156105ce5780601f106105a3576101008083540402835291602001916105ce565b820191906000526020600020905b8154815290600101906020018083116105b157829003601f168201915b5050509183525050600282015460ff161515602080830191909152600390920154604091820152825191830151908301516060909301519199909850919650945092505050565b600080821161065e5760405162461bcd60e51b815260206004820152601560248201527424b73b30b634b21020b0b23430b910373ab6b132b960591b604482015260640161016a565b60008260405160200161067391815260200190565b60408051601f1981840301815291905280516020909101209392505050565b634e487b7160e01b600052604160045260246000fd5b600082601f8301126106b957600080fd5b813567ffffffffffffffff808211156106d4576106d4610692565b604051601f8301601f19908116603f011681019082821181831017156106fc576106fc610692565b8160405283815286602085880101111561071557600080fd5b836020870160208301376000602085830101528094505050505092915050565b6000806000806080858703121561074b57600080fd5b843567ffffffffffffffff8082111561076357600080fd5b61076f888389016106a8565b9550602087013591508082111561078557600080fd5b50610792878288016106a8565b935050604085013580151581146107a857600080fd5b9396929550929360600135925050565b6000602082840312156107ca57600080fd5b5035919050565b6000815180845260005b818110156107f7576020818501810151868301820152016107db565b506000602082860101526020601f19601f83011685010191505092915050565b60808152600061082a60808301876107d1565b828103602084015261083c81876107d1565b941515604084015250506060015292915050565b60006001820161087057634e487b7160e01b600052601160045260246000fd5b5060010190565b600181811c9082168061088b57607f821691505b6020821081036108ab57634e487b7160e01b600052602260045260246000fd5b50919050565b601f8211156108fb57600081815260208120601f850160051c810160208610156108d85750805b601f850160051c820191505b818110156108f7578281556001016108e4565b5050505b505050565b815167ffffffffffffffff81111561091a5761091a610692565b61092e816109288454610877565b846108b1565b602080601f831160018114610963576000841561094b5750858301515b600019600386901b1c1916600185901b1785556108f7565b600085815260208120601f198616915b8281101561099257888601518255948401946001909101908401610973565b50858210156109b05787850151600019600388901b60f8161c191681555b5050505050600190811b0190555056fea2646970667358221220766a2e317cc0d65bed06dfba0fa6e11b9250f2036fd262393ab87acf57a6d78a64736f6c63430008130033",
    "sourcePath": "d:/B.Tech/Blockchain/Product Verification/Supply chain/1. EntityRegistration.sol",
    "compiler": {
        "name": "solc",
        "version": "0.8.19+commit.7dd6d404"
    },
    "functionHashes": {
        "administrator()": "f53d0a8e",
        "entities(uint256)": "6331883b",
        "entityCount()": "84a0a8c4",
        "getEntity(uint256)": "b3a27842",
        "getEntityCount()": "5d1b45b5",
        "registerEntity(string,string,bool,uint256)": "53e6019b"
    },
    "gasEstimates": {
        "creation": {
            "codeDepositCost": "510000",
            "executionCost": "24778",
            "totalCost": "534778"
        },
        "external": {
            "administrator()": "2425",
            "entities(uint256)": "infinite",
            "entityCount()": "2328",
            "getEntity(uint256)": "infinite",
            "getEntityCount()": "2270",
            "registerEntity(string,string,bool,uint256)": "infinite"
        },
        "internal": {
            "generateKey(uint256)": "infinite"
        }
    }
}